:100000000C9434000C9451000C9451000C94510049
:100010000C9451000C9451000C9451000C9451001C
:100020000C9451000C9451000C9451000C943F0519
:100030000C9451000C9451000C9451000C945100FC
:100040000C9451000C9451000C9451000C945100EC
:100050000C9451000C9451000C9451000C945100DC
:100060000C9451000C94510011241FBECFEFD8E026
:10007000DEBFCDBF11E0A0E0B1E0E0E9F9E102C0F0
:1000800005900D92A231B107D9F723E0A2E1B1E0CA
:1000900001C01D92AB30B207E1F70E9453000C94EF
:1000A000C60C0C940000CF93DF93CDB7DEB70E944F
:1000B00065000E94120B81E00E947F0A0E945D068B
:1000C00080E090E0DF91CF910895CF93DF931F926E
:1000D000CDB7DEB741E050E060E570E0CE010196BB
:1000E0000E94A80C89818F5F89838981682F80E5B0
:1000F00090E00E94B80C0F90DF91CF910895CF93BC
:10010000DF93CDB7DEB78091090390910A03019682
:1001100090930A0380930903DF91CF910895CF93C1
:10012000DF9300D0CDB7DEB79A83898389819A8126
:100130009C012D5F3F4F89819A81FC01328321838D
:1001400089819A812FEF3FEFFC01348323838981DA
:100150009A819C012D5F3F4F89819A81FC013683F2
:10016000258389819A819C012D5F3F4F89819A81E6
:10017000FC013087278389819A81FC0110820F90CE
:100180000F90DF91CF910895CF93DF9300D0CDB73B
:10019000DEB79A83898389819A81FC011186108652
:1001A0000F900F90DF91CF910895CF93DF9300D000
:1001B00000D000D0CDB7DEB79C838B837E836D8368
:1001C0008B819C81FC01818192819A8389838D81BD
:1001D0009E8129813A81FC013383228389819A811E
:1001E000FC01248135818D819E81FC01358324832E
:1001F00089819A81FC01848195812D813E81FC0158
:100200003383228389819A812D813E81FC0135834C
:1002100024838D819E812B813C81FC013187208745
:100220008B819C81FC01808121E0280F8B819C8146
:10023000FC01208326960FB6F894DEBF0FBECDBF1B
:10024000DF91CF910895CF93DF93CDB7DEB7289795
:100250000FB6F894DEBF0FBECDBF9E838D83788727
:100260006F838F819885FC01808191819C838B8332
:100270008B819C818F3FFFEF9F0741F48D819E8191
:10028000FC01878190859A8389831AC08D819E8124
:1002900003969A83898307C089819A81FC018281B0
:1002A00093819A83898389819A81FC0182819381D8
:1002B000FC01208131818B819C818217930760F73B
:1002C00089819A81FC01228133818F819885FC018B
:1002D000338322838F819885FC01828193812F81D2
:1002E0003885FC01358324838F81988529813A8163
:1002F000FC013583248389819A812F813885FC0113
:10030000338322838F8198852D813E81FC01318743
:1003100020878D819E81FC01808121E0280F8D81C5
:100320009E81FC01208328960FB6F894DEBF0FBE95
:10033000CDBFDF91CF910895CF93DF9300D000D050
:10034000CDB7DEB79C838B838B819C81FC0180853C
:1003500091859A8389838B819C81FC018281938121
:100360002B813C81F90124813581FC013583248373
:100370008B819C81FC01848195812B813C81F901D9
:1003800022813381FC013383228389819A81FC019C
:10039000218132818B819C812817390751F48B810F
:1003A0009C81FC012481358189819A81FC01328301
:1003B00021838B819C81FC011186108689819A8121
:1003C000FC0180812FEF280F89819A81FC01208315
:1003D00089819A81FC0180810F900F900F900F907E
:1003E000DF91CF910895CF93DF9300D000D0CDB7A8
:1003F000DEB79C838B831A8219820E9493068091B8
:10040000A4029091A502009731F483E191E09093CA
:10041000A5028093A4022091A2023091A3028B81B5
:100420009C81820F931F8F3821E0920738F520912D
:10043000A2023091A3028B819C81280F391F8091E9
:10044000A2029091A30282179307C0F42091A40204
:100450003091A5028091A2029091A302820F931F76
:100460009A8389832091A2023091A3028B819C817F
:10047000820F931F9093A3028093A2020E949F0673
:1004800089819A810F900F900F900F90DF91CF91FB
:100490000895CF93DF9300D0CDB7DEB79A838983D9
:1004A0000F900F90DF91CF910895CF93DF93CDB749
:1004B000DEB728970FB6F894DEBF0FBECDBF9C8382
:1004C0008B837E836D8358874F838B819C8121E151
:1004D000FC0120838B819C8101979C838B838B8182
:1004E0009C8122E2FC0120838B819C8101979C836B
:1004F0008B838B819C8123E3FC0120838B819C81F6
:1005000001979C838B838D819E819A838983298126
:100510008B819C81FC0120838B819C8101979C8332
:100520008B8389819A81892F99279A83898329814D
:100530008B819C81FC0120838B819C8101979C8312
:100540008B838B819C81FC0110828B819C81019724
:100550009C838B838B819C8120E8FC0120838B8191
:100560009C8101979C838B838B819C81FC011082F1
:100570008B819C8101979C838B838B819C8122E062
:10058000FC0120838B819C8101979C838B838B81D1
:100590009C8123E0FC0120838B819C8101979C83BB
:1005A0008B838B819C8124E0FC0120838B819C8147
:1005B00001979C838B838B819C8125E0FC012083A8
:1005C0008B819C8101979C838B838B819C8126E00E
:1005D000FC0120838B819C8101979C838B838B8181
:1005E0009C8127E0FC0120838B819C8101979C8367
:1005F0008B838B819C8128E0FC0120838B819C81F3
:1006000001979C838B838B819C8129E0FC01208353
:100610008B819C8101979C838B838B819C8120E1C2
:10062000FC0120838B819C8101979C838B838B8130
:100630009C8121E1FC0120838B819C8101979C831B
:100640008B838B819C8122E1FC0120838B819C81A7
:1006500001979C838B838B819C8123E1FC01208308
:100660008B819C8101979C838B838B819C8124E16E
:10067000FC0120838B819C8101979C838B838B81E0
:100680009C8125E1FC0120838B819C8101979C83C7
:100690008B838B819C8126E1FC0120838B819C8153
:1006A00001979C838B838B819C8127E1FC012083B4
:1006B0008B819C8101979C838B838B819C8128E11A
:1006C000FC0120838B819C8101979C838B838B8190
:1006D0009C8129E1FC0120838B819C8101979C8373
:1006E0008B838B819C8120E2FC0120838B819C8108
:1006F00001979C838B838B819C8121E2FC01208369
:100700008B819C8101979C838B838B819C8122E2CE
:10071000FC0120838B819C8101979C838B838B813F
:100720009C8123E2FC0120838B819C8101979C8327
:100730008B838F8198859A83898329818B819C8182
:10074000FC0120838B819C8101979C838B83898111
:100750009A81892F99279A83898329818B819C810A
:10076000FC0120838B819C8101979C838B838B81EF
:100770009C8126E2FC0120838B819C8101979C83D4
:100780008B838B819C8127E2FC0120838B819C8160
:1007900001979C838B838B819C8128E2FC012083C1
:1007A0008B819C8101979C838B838B819C8129E227
:1007B000FC0120838B819C8101979C838B838B819F
:1007C0009C8120E3FC0120838B819C8101979C8389
:1007D0008B838B819C8121E3FC0120838B819C8115
:1007E00001979C838B838B819C8128960FB6F8940C
:1007F000DEBF0FBECDBFDF91CF910895CF93DF93C2
:10080000CDB7DEB70E94E904A091A602B091A7027D
:10081000CD91CDBFDD91DEBFFF91EF91DF91CF9103
:10082000BF91AF919F918F917F916F915F914F9108
:100830003F912F911F910F91FF90EF90DF90CF90FC
:10084000BF90AF909F908F907F906F905F904F90F0
:100850003F902F901F900F900FBE0F90089581E052
:10086000DF91CF9108950F920FB6F8940F921F92D7
:1008700011242F923F924F925F926F927F928F92AC
:100880009F92AF92BF92CF92DF92EF92FF920F931F
:100890001F932F933F934F935F936F937F938F9308
:1008A0009F93AF93BF93CF93DF93EF93FF93A09169
:1008B000A602B091A7020DB60D920EB60D920E943F
:1008C0003A08A091A602B091A702CD91CDBFDD91CB
:1008D000DEBFFF91EF91DF91CF91BF91AF919F91DB
:1008E0008F917F916F915F914F913F912F911F91C8
:1008F0000F91FF90EF90DF90CF90BF90AF909F90BF
:100900008F907F906F905F904F903F902F901F90AF
:100910000F900FBE0F9008950F920FB6F8940F929C
:100920001F9211242F923F924F925F926F927F926B
:100930008F929F92AF92BF92CF92DF92EF92FF92EF
:100940000F931F932F933F934F935F936F937F93D7
:100950008F939F93AF93BF93CF93DF93EF93FF93C7
:10096000A091A602B091A7020DB60D920EB60D92FF
:100970000E944407882311F00E943A08A091A60221
:10098000B091A702CD91CDBFDD91DEBFFF91EF9178
:10099000DF91CF91BF91AF919F918F917F916F9197
:1009A0005F914F913F912F911F910F91FF90EF9089
:1009B000DF90CF90BF90AF909F908F907F906F907F
:1009C0005F904F903F902F901F900F900FBE0F9011
:1009D0000895CF93DF9300D000D01F92CDB7DEB73C
:1009E00080E89EE3A0E0B0E089839A83AB83BC8378
:1009F00089819A81AB81BC81689415F8B695A795D9
:100A0000979587951694D1F789839A83AB83BC8396
:100A100089819A81AB81BC810197A109B109898340
:100A20009A83AB83BC8388E890E029813A81FC01FA
:100A30003183208380E890E020E830E0F9012081D4
:100A40002C7FFC0120838BE08D8381E890E02D8159
:100A5000FC0120838FE690E0FC0180818D838D81F5
:100A600082608D838FE690E02D81FC0120830F90C2
:100A70000F900F900F900F90DF91CF9108950E94EB
:100A80008C041895AF92BF92CF92DF92EF92FF92B3
:100A90000F931F93CF93DF93CDB7DEB764970FB655
:100AA000F894DEBF0FBECDBF9F838E8379876887A2
:100AB0005B874A873D872C870E87F88AEF86DA8A1C
:100AC000C98ABC8AAB8A29893A898A859B85B901FA
:100AD0000E94FD099B838A838A819B81009709F488
:100AE00091C08A819B81FC012789308D8A859B85F5
:100AF0000197820F931F9D838C834A855B852B8989
:100B00003C89688579858A819B818A014E850E940E
:100B1000B9084C855D852E813F818C819D81B9010D
:100B20000E9455029C018A819B81FC0131832083B4
:100B30008F859889009739F08F8598892A813B8124
:100B4000FC01318320830FB6F8940F928091FE024E
:100B50008F5F8093FE028091A6029091A70200977A
:100B600069F48A819B819093A7028093A602809169
:100B7000FE028130B1F40E94320913C08091020359
:100B8000882379F48091A6029091A702FC019689AE
:100B90008E85891730F08A819B819093A70280937C
:100BA000A602809106038F5F809306038A819B8152
:100BB000FC01968980910103891730F48A819B8119
:100BC000FC018689809301038A819B81AC014E5F81
:100BD0005F4F8A819B81FC018689282F30E0C90103
:100BE000880F991F880F991F880F991F820F931FD5
:100BF00088559D4FBA010E94D50081E089830F90EE
:100C00000FBE02C08FEF89838981813079F4809192
:100C10000203882359F08091A6029091A702FC015B
:100C200096898E85981710F40E9433048981649602
:100C30000FB6F894DEBF0FBECDBFDF91CF911F91ED
:100C40000F91FF90EF90DF90CF90BF90AF900895FD
:100C5000CF93DF9300D000D01F92CDB7DEB79D8336
:100C60008C8319828C819D810097D1F00E9493061C
:100C70002091FF02309100038C819D81820F931F90
:100C80009B838A838091A6029091A70202960E947C
:100C90009C018A819B810E94B3090E949F068983DF
:100CA0008981882311F40E9433040F900F900F90D4
:100CB0000F900F90DF91CF910895AF92BF92CF9296
:100CC000DF92EF92FF920F93CF93DF931F92CDB7F6
:100CD000DEB7A12CB12CC12CD12CE12CF12C00E0E1
:100CE00020E030E045E550E067E071E089EA98E017
:100CF0000E94420589838981813051F4F89481E012
:100D000080930203109200031092FF020E94FE03E0
:100D10000F90DF91CF910F91FF90EF90DF90CF90E8
:100D2000BF90AF900895CF93DF93CDB7DEB780919A
:100D300007038F5F80930703DF91CF910895CF93CF
:100D4000DF9300D01F92CDB7DEB719820FB6F894AB
:100D50000F928091070381508093070380910703CE
:100D6000882309F071C08091FE02882309F46CC0C9
:100D700049C08091E7029091E802FC018681978149
:100D80009B838A838A819B810C960E949C018A8125
:100D90009B8102960E949C018A819B81FC0196891D
:100DA00080910103891730F48A819B81FC01868937
:100DB000809301038A819B81AC014E5F5F4F8A81E2
:100DC0009B81FC018689282F30E0C901880F991F7B
:100DD000880F991F880F991F820F931F88559D4F69
:100DE000BA010E94D5008A819B81FC0126898091ED
:100DF000A6029091A702FC018689281718F081E0CD
:100E0000809304038091E202882309F0B2CF80919D
:100E10000303882389F00CC00E944407882319F03B
:100E200081E0809304038091030381508093030346
:100E300080910303882381F780910403813021F49A
:100E400081E089830E9433040F900FBE89810F9047
:100E50000F900F90DF91CF910895CF93DF9300D043
:100E6000CDB7DEB70FB6F8940F928091FF02909144
:100E700000039A8389830F900FBE89819A810F9016
:100E80000F90DF91CF910895CF93DF93CDB7DEB769
:100E900029970FB6F894DEBF0FBECDBF198280919F
:100EA0000703882309F0CFC08091FF0290910003CF
:100EB0000196909300038093FF028091FF0290912E
:100EC00000039B838A838A819B810097D9F4809158
:100ED000DE029091DF029D838C838091E0029091ED
:100EE000E1029093DF028093DE028C819D819093DA
:100EF000E1028093E002809105038F5F80930503F8
:100F00000E94510A80910001909101012A813B8148
:100F10002817390708F477C08091DE029091DF022C
:100F2000FC018081882339F48FEF9FEF90930101BA
:100F30008093000168C08091DE029091DF02FC0185
:100F400085819681FC01868197819F838E838E8126
:100F50009F81FC0182819381998788872A813B81C7
:100F6000888599852817390738F48885998590935D
:100F700001018093000147C08E819F8102960E94EB
:100F80009C018E819F81FC0184899589009729F0BD
:100F90008E819F810C960E949C018E819F81FC0115
:100FA000968980910103891730F48E819F81FC011D
:100FB0008689809301038E819F81AC014E5F5F4FD4
:100FC0008E819F81FC018689282F30E0C901880F1E
:100FD000991F880F991F880F991F820F931F88559B
:100FE0009D4FBA010E94D5008E819F81FC01268908
:100FF0008091A6029091A702FC018689281710F023
:1010000081E0898389CF8091A6029091A702FC019B
:101010008689282F30E0C901880F991F880F991FF2
:10102000880F991F820F931F88559D4FFC01808167
:10103000823010F081E0898380910303882351F48A
:101040000E947F0007C0809103038F5F809303039A
:101050000E947F0080910403882311F081E089833E
:10106000898129960FB6F894DEBF0FBECDBFDF9100
:10107000CF910895CF93DF9300D0CDB7DEB78091A5
:101080000703882321F081E0809304035DC0109260
:10109000040305C080910103815080930103809176
:1010A0000103282F30E0C901880F991F880F991F6D
:1010B000880F991F820F931F88559D4FFC018081D7
:1010C000882341F380910103282F30E0C901880F64
:1010D000991F880F991F880F991F820F931F88559A
:1010E0009D4F9A83898389819A81FC0181819281B4
:1010F000FC012281338189819A81FC013283218321
:1011000089819A81FC012181328189819A810396AA
:101110002817390769F489819A81FC0181819281BC
:10112000FC012281338189819A81FC0132832183F0
:1011300089819A81FC0181819281FC01868197815C
:101140009093A7028093A6020F900F90DF91CF910A
:101150000895CF93DF9300D0CDB7DEB79A8389830C
:101160000E9473098091A802823010F00E9433041B
:10117000F7CF0F931F93CF93DF93CDB7DEB72A97A7
:101180000FB6F894DEBF0FBECDBF9B838A837D83ED
:101190006C834E8338872F831A870987198222C070
:1011A0008981882F90E02981222F30E04C815D8158
:1011B000240F351FF90140812A813B81820F931F43
:1011C0004996FC0140838981882F90E02C813D81E4
:1011D000820F931FFC018081882309F406C0898156
:1011E0008F5F898389818830D8F28A819B81FC0155
:1011F00010A28E81843010F083E08E838A819B81DF
:101200002E81FC01268B8A819B8102960E94C4005C
:101210008A819B810C960E94C4008A819B812A81CD
:101220003B81FC01318720878E81882F90E024E06C
:1012300030E0281B390B8A819B81FC01358724878C
:101240008A819B812A813B81FC01338B228B2A96E8
:101250000FB6F894DEBF0FBECDBFDF91CF911F91C7
:101260000F910895CF93DF931F92CDB7DEB7198208
:1012700013C08981282F30E0C901880F991F880F7A
:10128000991F880F991F820F931F88559D4F0E94A9
:101290008F0089818F5F89838981843050F38CEC42
:1012A00092E00E948F0085ED92E00E948F0082EE16
:1012B00092E00E948F008BEE92E00E948F0085EFFB
:1012C00092E00E948F008CEC92E09093DF0280937A
:1012D000DE0285ED92E09093E1028093E0020F90B0
:1012E000DF91CF910895CF93DF9300D01F92CDB7B8
:1012F000DEB72FC00E9493069091EB0281E0992304
:1013000009F080E089830E949F068981882309F57E
:101310000FB6F8940F928091F0029091F102FC01C7
:10132000868197819B838A838A819B8102960E9412
:101330009C018091FE0281508093FE028091F40214
:1013400081508093F4020F900FBE8A819B810E948E
:101350003A0A8091F402882369F60F900F900F905B
:10136000DF91CF910895CF93DF9300D0CDB7DEB753
:101370009A8389838091A6029091A70229813A815C
:10138000FC01338322838091FF0290910003298125
:101390003A812817390778F48091A6029091A70224
:1013A0009C012E5F3F4F8091E0029091E102B901D4
:1013B0000E9423011DC08091A6029091A7029C016A
:1013C0002E5F3F4F8091DE029091DF02B9010E94B3
:1013D0002301809100019091010129813A81281710
:1013E000390730F489819A8190930101809300013B
:1013F0000F900F90DF91CF910895CF93DF9300D09E
:1014000000D000D0CDB7DEB79C838B837E836D8305
:1014100081E290E00E94F3019A83898389819A8115
:101420000097E9F08D819E81009729F48B819C8142
:101430000E94F30102C08D819E8129813A81F901C8
:10144000908F878B89819A81FC018789908D009785
:1014500031F489819A810E9449021A821982898114
:101460009A8126960FB6F894DEBF0FBECDBFDF91EE
:10147000CF910895CF93DF9300D0CDB7DEB79A8395
:10148000898389819A81FC018789908D0E94490214
:1014900089819A810E9449020F900F90DF91CF912C
:1014A0000895CF93DF9300D0CDB7DEB78091DE02F1
:1014B0009091DF02FC018081882339F48FEF9FEF48
:1014C000909301018093000115C08091DE029091FC
:1014D000DF02FC0185819681FC01868197819A83D8
:1014E000898389819A81FC01828193819093010192
:1014F000809300010F900F90DF91CF910895AF92EC
:10150000BF92CF92DF92EF92FF920F93CF93DF9330
:101510001F92CDB7DEB78983A12CB12CC12CD12C61
:10152000E12CF12C098120E030E045E550E06CE051
:1015300071E088EA9AE00E9442050F90DF91CF9116
:101540000F91FF90EF90DF90CF90BF90AF900895F4
:10155000CF93DF93CDB7DEB72A970FB6F894DEBFEF
:101560000FBECDBF9A87898785E089838091060168
:101570008A838A81882F90E0AC014F5F5F4F2DE412
:1015800031E0429FC001439F900D529F900D112466
:101590009C838B8380ED90E09C838B830E942D073E
:1015A0009E838D8310920A031092090318861F826E
:1015B0008091090390910A03CC01A0E0B0E0BC0146
:1015C000CD010E94B70BDC01CB01209102013091CB
:1015D00003014091040150910501BC01CD010E941D
:1015E000450CDC01CB019C01AD0160E070E086E6BA
:1015F00093E40E94260BDC01CB01BC01CD010E94CB
:101600008B0BDC01CB0198878F838F8198850097A6
:1016100021F481E090E00E94280681E090E00E94A1
:101620002806C6CFCF93DF93CDB7DEB7109208035D
:101630008AE290E02FEFFC0120838BE290E0209182
:101640000803FC012083DF91CF9108955058BB27F8
:10165000AA270ED0E0C0D1D030F0D6D020F031F49F
:101660009F3F11F41EF4C6C00EF4E095E7FBBCC02A
:10167000E92FE2D080F3BA17620773078407950752
:1016800018F071F49EF5FAC00EF4E0950B2EBA2F07
:10169000A02D0B01B90190010C01CA01A001112478
:1016A000FF27591B99F0593F50F4503E68F11A1624
:1016B000F040A22F232F342F4427585FF3CF4695B5
:1016C00037952795A795F0405395C9F77EF41F16D7
:1016D000BA0B620B730B840BBAF09150A1F0FF0FA1
:1016E000BB1F661F771F881FC2F70EC0BA0F621F8D
:1016F000731F841F48F4879577956795B795F7957D
:101700009E3F08F0B3CF9395880F08F09927EE0F0E
:1017100097958795089598D088F09F5790F0B92FA6
:101720009927B751A0F0D1F0660F771F881F991F36
:101730001AF0BA95C9F712C0B13081F09FD0B1E06C
:1017400008959CC0672F782F8827B85F39F0B93F7C
:10175000CCF3869577956795B395D9F73EF4909538
:101760008095709561957F4F8F4F9F4F0895E894B6
:1017700009C097FB3EF490958095709561957F4FD9
:101780008F4F9F4F9923A9F0F92F96E9BB27939587
:10179000F695879577956795B795F111F8CFFAF497
:1017A000BB0F11F460FF1BC06F5F7F4F8F4F9F4FC8
:1017B00016C0882311F096E911C0772321F09EE826
:1017C000872F762F05C0662371F096E8862F70E08C
:1017D00060E02AF09A95660F771F881FDAF7880F66
:1017E0009695879597F9089597F99F6780E870E037
:1017F00060E008959FEF80EC089500240A94161687
:10180000170618060906089500240A9412161306EE
:10181000140605060895092E0394000C11F488237C
:1018200052F0BB0F40F4BF2B11F460FF04C06F5F98
:101830007F4F8F4F9F4F089557FD9058440F551F6E
:1018400059F05F3F71F04795880F97FB991F61F042
:101850009F3F79F087950895121613061406551FB9
:10186000F2CF4695F1DF08C0161617061806991F25
:10187000F1CF86957105610508940895E894BB271A
:1018800066277727CB0197F908950BD0C4CFB5DF32
:1018900028F0BADF18F0952309F0A6CFABCF1124BA
:1018A000EECFCADFA0F3959FD1F3950F50E0551FFF
:1018B000629FF001729FBB27F00DB11D639FAA27A5
:1018C000F00DB11DAA1F649F6627B00DA11D661FF4
:1018D000829F2227B00DA11D621F739FB00DA11D15
:1018E000621F839FA00D611D221F749F3327A00DCF
:1018F000611D231F849F600D211D822F762F6A2F6B
:1019000011249F5750408AF0E1F088234AF0EE0FEF
:10191000FF1FBB1F661F771F881F91505040A9F7FC
:101920009E3F510570F060CFAACF5F3FECF3983E29
:10193000DCF3869577956795B795F795E7959F5F63
:10194000C1F7FE2B880F911D9695879597F90895FD
:10195000DC01CB01FC01F999FECF06C0F2BDE1BD6F
:10196000F89A319600B40D9241505040B8F708955E
:10197000262FF999FECF1FBA92BD81BD20BD0FB6AB
:10198000F894FA9AF99A0FBE01960895F894FFCF49
:10199000FFFFCDCC4C3E0449444C45004C454478B7
:0219A000000045
:00000001FF
